{
  "contractName": "RealEstate",
  "abi": [
    {
      "inputs": [],
      "payable": false,
      "stateMutability": "nonpayable",
      "type": "constructor"
    },
    {
      "anonymous": false,
      "inputs": [
        {
          "indexed": false,
          "internalType": "address",
          "name": "_owner",
          "type": "address"
        },
        {
          "indexed": false,
          "internalType": "uint256",
          "name": "_landIdx",
          "type": "uint256"
        }
      ],
      "name": "AddProperty",
      "type": "event"
    },
    {
      "anonymous": false,
      "inputs": [
        {
          "indexed": true,
          "internalType": "address",
          "name": "_from",
          "type": "address"
        },
        {
          "indexed": true,
          "internalType": "address",
          "name": "_to",
          "type": "address"
        },
        {
          "indexed": false,
          "internalType": "uint256",
          "name": "_landIdx",
          "type": "uint256"
        }
      ],
      "name": "TransferProperty",
      "type": "event"
    },
    {
      "constant": true,
      "inputs": [],
      "name": "owner",
      "outputs": [
        {
          "internalType": "address",
          "name": "",
          "type": "address"
        }
      ],
      "payable": false,
      "stateMutability": "view",
      "type": "function"
    },
    {
      "constant": true,
      "inputs": [
        {
          "internalType": "address",
          "name": "",
          "type": "address"
        },
        {
          "internalType": "uint256",
          "name": "",
          "type": "uint256"
        }
      ],
      "name": "property",
      "outputs": [
        {
          "internalType": "address",
          "name": "ownerAddress",
          "type": "address"
        },
        {
          "internalType": "string",
          "name": "location",
          "type": "string"
        },
        {
          "internalType": "uint256",
          "name": "ID",
          "type": "uint256"
        },
        {
          "internalType": "uint256",
          "name": "cost",
          "type": "uint256"
        },
        {
          "internalType": "uint256",
          "name": "state",
          "type": "uint256"
        }
      ],
      "payable": false,
      "stateMutability": "view",
      "type": "function"
    },
    {
      "constant": false,
      "inputs": [
        {
          "internalType": "string",
          "name": "location",
          "type": "string"
        },
        {
          "internalType": "uint256",
          "name": "cost",
          "type": "uint256"
        }
      ],
      "name": "_createProperty",
      "outputs": [],
      "payable": true,
      "stateMutability": "payable",
      "type": "function"
    },
    {
      "constant": true,
      "inputs": [
        {
          "internalType": "address",
          "name": "landOwner",
          "type": "address"
        },
        {
          "internalType": "uint256",
          "name": "propertyID",
          "type": "uint256"
        }
      ],
      "name": "_getPropertyDetails",
      "outputs": [
        {
          "internalType": "address",
          "name": "",
          "type": "address"
        },
        {
          "internalType": "string",
          "name": "",
          "type": "string"
        },
        {
          "internalType": "uint256",
          "name": "",
          "type": "uint256"
        },
        {
          "internalType": "uint256",
          "name": "",
          "type": "uint256"
        },
        {
          "internalType": "uint256",
          "name": "",
          "type": "uint256"
        }
      ],
      "payable": false,
      "stateMutability": "view",
      "type": "function"
    },
    {
      "constant": false,
      "inputs": [
        {
          "internalType": "address payable",
          "name": "_buyer",
          "type": "address"
        },
        {
          "internalType": "uint256",
          "name": "propertyID",
          "type": "uint256"
        }
      ],
      "name": "_transferProperty",
      "outputs": [
        {
          "internalType": "bool",
          "name": "",
          "type": "bool"
        }
      ],
      "payable": true,
      "stateMutability": "payable",
      "type": "function"
    }
  ],
  "bytecode": "0x608060405234801561001057600080fd5b5033600160006101000a81548173ffffffffffffffffffffffffffffffffffffffff021916908373ffffffffffffffffffffffffffffffffffffffff16021790555060008081905550611174806100686000396000f3fe60806040526004361061004a5760003560e01c80636eb4e00e1461004f5780638da5cb5b1461016b578063a9e9f032146101c2578063b9788372146102de578063dece20b2146103a3575b600080fd5b34801561005b57600080fd5b506100a86004803603604081101561007257600080fd5b81019080803573ffffffffffffffffffffffffffffffffffffffff16906020019092919080359060200190929190505050610409565b604051808673ffffffffffffffffffffffffffffffffffffffff1673ffffffffffffffffffffffffffffffffffffffff16815260200180602001858152602001848152602001838152602001828103825286818151815260200191508051906020019080838360005b8381101561012c578082015181840152602081019050610111565b50505050905090810190601f1680156101595780820380516001836020036101000a031916815260200191505b50965050505050505060405180910390f35b34801561017757600080fd5b50610180610511565b604051808273ffffffffffffffffffffffffffffffffffffffff1673ffffffffffffffffffffffffffffffffffffffff16815260200191505060405180910390f35b3480156101ce57600080fd5b5061021b600480360360408110156101e557600080fd5b81019080803573ffffffffffffffffffffffffffffffffffffffff16906020019092919080359060200190929190505050610537565b604051808673ffffffffffffffffffffffffffffffffffffffff1673ffffffffffffffffffffffffffffffffffffffff16815260200180602001858152602001848152602001838152602001828103825286818151815260200191508051906020019080838360005b8381101561029f578082015181840152602081019050610284565b50505050905090810190601f1680156102cc5780820380516001836020036101000a031916815260200191505b50965050505050505060405180910390f35b6103a1600480360360408110156102f457600080fd5b810190808035906020019064010000000081111561031157600080fd5b82018360208201111561032357600080fd5b8035906020019184600183028401116401000000008311171561034557600080fd5b91908080601f016020809104026020016040519081016040528093929190818152602001838380828437600081840152601f19601f820116905080830192505050505050509192919290803590602001909291905050506107db565b005b6103ef600480360360408110156103b957600080fd5b81019080803573ffffffffffffffffffffffffffffffffffffffff16906020019092919080359060200190929190505050610a02565b604051808215151515815260200191505060405180910390f35b6002602052816000526040600020818154811061042257fe5b9060005260206000209060050201600091509150508060000160009054906101000a900473ffffffffffffffffffffffffffffffffffffffff1690806001018054600181600116156101000203166002900480601f0160208091040260200160405190810160405280929190818152602001828054600181600116156101000203166002900480156104f55780601f106104ca576101008083540402835291602001916104f5565b820191906000526020600020905b8154815290600101906020018083116104d857829003601f168201915b5050505050908060020154908060030154908060040154905085565b600160009054906101000a900473ffffffffffffffffffffffffffffffffffffffff1681565b600060606000806000600260008873ffffffffffffffffffffffffffffffffffffffff1673ffffffffffffffffffffffffffffffffffffffff168152602001908152602001600020868154811061058a57fe5b906000526020600020906005020160000160009054906101000a900473ffffffffffffffffffffffffffffffffffffffff16600260008973ffffffffffffffffffffffffffffffffffffffff1673ffffffffffffffffffffffffffffffffffffffff168152602001908152602001600020878154811061060657fe5b9060005260206000209060050201600101600260008a73ffffffffffffffffffffffffffffffffffffffff1673ffffffffffffffffffffffffffffffffffffffff168152602001908152602001600020888154811061066157fe5b906000526020600020906005020160020154600260008b73ffffffffffffffffffffffffffffffffffffffff1673ffffffffffffffffffffffffffffffffffffffff16815260200190815260200160002089815481106106bd57fe5b906000526020600020906005020160030154600260008c73ffffffffffffffffffffffffffffffffffffffff1673ffffffffffffffffffffffffffffffffffffffff1681526020019081526020016000208a8154811061071957fe5b906000526020600020906005020160040154838054600181600116156101000203166002900480601f0160208091040260200160405190810160405280929190818152602001828054600181600116156101000203166002900480156107c05780601f10610795576101008083540402835291602001916107c0565b820191906000526020600020905b8154815290600101906020018083116107a357829003601f168201915b50505050509350945094509450945094509295509295909350565b600160009054906101000a900473ffffffffffffffffffffffffffffffffffffffff1673ffffffffffffffffffffffffffffffffffffffff163373ffffffffffffffffffffffffffffffffffffffff161461083557600080fd5b60008090506108506001600054610ff190919063ffffffff16565b60008190555061085e61100d565b6040518060a001604052803373ffffffffffffffffffffffffffffffffffffffff1681526020018581526020016000548152602001848152602001838152509050600260003373ffffffffffffffffffffffffffffffffffffffff1673ffffffffffffffffffffffffffffffffffffffff168152602001908152602001600020819080600181540180825580915050906001820390600052602060002090600502016000909192909190915060008201518160000160006101000a81548173ffffffffffffffffffffffffffffffffffffffff021916908373ffffffffffffffffffffffffffffffffffffffff160217905550602082015181600101908051906020019061096d929190611052565b506040820151816002015560608201518160030155608082015181600401555050507f13f11507732a308afb468c393d2bea31747b8d26368e6ceee9796e7d4139839d33600054604051808373ffffffffffffffffffffffffffffffffffffffff1673ffffffffffffffffffffffffffffffffffffffff1681526020018281526020019250505060405180910390a150505050565b6000600260003373ffffffffffffffffffffffffffffffffffffffff1673ffffffffffffffffffffffffffffffffffffffff1681526020019081526020016000208281548110610a4e57fe5b906000526020600020906005020160030154670de0b6b3a76400008102341015610a7757600080fd5b600160009054906101000a900473ffffffffffffffffffffffffffffffffffffffff1673ffffffffffffffffffffffffffffffffffffffff163373ffffffffffffffffffffffffffffffffffffffff1614610ad157600080fd5b60006001905060008090505b600260003373ffffffffffffffffffffffffffffffffffffffff1673ffffffffffffffffffffffffffffffffffffffff16815260200190815260200160002080549050811015610fe35784600260003373ffffffffffffffffffffffffffffffffffffffff1673ffffffffffffffffffffffffffffffffffffffff1681526020019081526020016000208281548110610b7257fe5b9060005260206000209060050201600201541415610fd657610b9261100d565b6040518060a001604052808873ffffffffffffffffffffffffffffffffffffffff168152602001600260003373ffffffffffffffffffffffffffffffffffffffff1673ffffffffffffffffffffffffffffffffffffffff1681526020019081526020016000208481548110610c0357fe5b90600052602060002090600502016001018054600181600116156101000203166002900480601f016020809104026020016040519081016040528092919081815260200182805460018160011615610100020316600290048015610ca85780601f10610c7d57610100808354040283529160200191610ca8565b820191906000526020600020905b815481529060010190602001808311610c8b57829003601f168201915b50505050508152602001878152602001600260003373ffffffffffffffffffffffffffffffffffffffff1673ffffffffffffffffffffffffffffffffffffffff1681526020019081526020016000208481548110610d0257fe5b9060005260206000209060050201600301548152602001848152509050600260008873ffffffffffffffffffffffffffffffffffffffff1673ffffffffffffffffffffffffffffffffffffffff168152602001908152602001600020819080600181540180825580915050906001820390600052602060002090600502016000909192909190915060008201518160000160006101000a81548173ffffffffffffffffffffffffffffffffffffffff021916908373ffffffffffffffffffffffffffffffffffffffff1602179055506020820151816001019080519060200190610ded929190611052565b50604082015181600201556060820151816003015560808201518160040155505050600260003373ffffffffffffffffffffffffffffffffffffffff1673ffffffffffffffffffffffffffffffffffffffff1681526020019081526020016000208281548110610e5957fe5b9060005260206000209060050201600080820160006101000a81549073ffffffffffffffffffffffffffffffffffffffff0219169055600182016000610e9f91906110d2565b60028201600090556003820160009055600482016000905550508673ffffffffffffffffffffffffffffffffffffffff163373ffffffffffffffffffffffffffffffffffffffff167fa5cecab0e396ddf8ae29902ba8e9de0edf0993fe004c8775e5d90b97eb0b5eee886040518082815260200191505060405180910390a38673ffffffffffffffffffffffffffffffffffffffff166108fc670de0b6b3a7640000600260003373ffffffffffffffffffffffffffffffffffffffff1673ffffffffffffffffffffffffffffffffffffffff1681526020019081526020016000208581548110610f8b57fe5b906000526020600020906005020160030154029081150290604051600060405180830381858888f19350505050158015610fc9573d6000803e3d6000fd5b5060019450505050610fea565b8080600101915050610add565b5060009250505b5092915050565b60008082840190508381101561100357fe5b8091505092915050565b6040518060a00160405280600073ffffffffffffffffffffffffffffffffffffffff168152602001606081526020016000815260200160008152602001600081525090565b828054600181600116156101000203166002900490600052602060002090601f016020900481019282601f1061109357805160ff19168380011785556110c1565b828001600101855582156110c1579182015b828111156110c05782518255916020019190600101906110a5565b5b5090506110ce919061111a565b5090565b50805460018160011615610100020316600290046000825580601f106110f85750611117565b601f016020900490600052602060002090810190611116919061111a565b5b50565b61113c91905b80821115611138576000816000905550600101611120565b5090565b9056fea265627a7a7231582081c26e75b79cde8c28e274e028e081bb0b6e65629585394d89cade3407753d2764736f6c63430005100032",
  "source": "pragma solidity >=0.4.21 <0.7.0;\n\nimport \"./SafeMath.sol\";\n\ncontract RealEstate {\n\n  using SafeMath for uint256;\n\n  struct Property{\n    address ownerAddress;\n    string  location;\n    uint    ID;\n    uint    cost;\n    uint    state;\n  }\n\n  uint idCounter;\n  address public owner;  \n\n  constructor() public{\n    owner = msg.sender;\n    idCounter = 0;\n  }\n\n  mapping (address => Property[]) public property;\n\n  event AddProperty(address _owner, uint _landIdx);\n  event TransferProperty(address indexed _from, address indexed _to, uint _landIdx);\n\n  modifier checkIfAmountEnough(uint cost) {\n    require(msg.value >= (cost)*1e18);\n    _;\n  }\n\n  function _createProperty(string memory location, uint cost) public payable {\n    require(msg.sender == owner);\n    uint state = 0;\n    idCounter = idCounter.add(1);\n      Property memory myProperty = Property(\n          {\n              ownerAddress: msg.sender,\n              location: location,\n              ID: idCounter,\n              cost: cost,\n              state: state\n              \n          });\n      property[msg.sender].push(myProperty);\n      emit AddProperty(msg.sender, idCounter);\n  }\n\n  function _getPropertyDetails(address landOwner, uint propertyID) public view returns (address, string memory, uint, uint, uint){\n    return( \n      property[landOwner][propertyID].ownerAddress,\n      property[landOwner][propertyID].location, \n      property[landOwner][propertyID].ID, \n      property[landOwner][propertyID].cost,\n      property[landOwner][propertyID].state\n      );\n  }\n\n  function _transferProperty(address payable _buyer, uint propertyID) public payable checkIfAmountEnough(property[msg.sender][propertyID].cost) returns (bool){\n    require(msg.sender == owner);\n    uint state = 1;\n    for(uint i=0; i<(property[msg.sender].length); i++) {\n      if(property[msg.sender][i].ID == propertyID) {\n        Property memory myProperty = Property({\n          ownerAddress: _buyer,\n          location: property[msg.sender][i].location,\n          cost: property[msg.sender][i].cost,\n          ID: propertyID,\n          state: state\n        });\n        property[_buyer].push(myProperty);   \n        \n        //remove land from current ownerAddress\n        delete property[msg.sender][i];\n\n        emit TransferProperty(msg.sender, _buyer, propertyID);                \n        _buyer.transfer((property[msg.sender][i].cost)*1e18);\n        return true;\n      }\n    }\n    return false;\n  }\n}\n",
  "sourcePath": "/Users/bryanphang/Desktop/Personal_info/Bryan/Tutorials/49.Real_estate/contracts/RealEstate.sol",
  "compiler": {
    "name": "solc",
    "version": "0.5.16+commit.9c3226ce.Emscripten.clang"
  },
  "schemaVersion": "3.1.0",
  "updatedAt": "2020-04-26T07:51:31.799Z",
  "devdoc": {
    "methods": {}
  },
  "userdoc": {
    "methods": {}
  }
}