{
  "contractName": "RealEstate",
  "abi": [
    {
      "inputs": [],
      "payable": false,
      "stateMutability": "nonpayable",
      "type": "constructor"
    },
    {
      "anonymous": false,
      "inputs": [
        {
          "indexed": false,
          "internalType": "address",
          "name": "_owner",
          "type": "address"
        },
        {
          "indexed": false,
          "internalType": "uint256",
          "name": "_landIdx",
          "type": "uint256"
        }
      ],
      "name": "AddProperty",
      "type": "event"
    },
    {
      "anonymous": false,
      "inputs": [
        {
          "indexed": true,
          "internalType": "address",
          "name": "_from",
          "type": "address"
        },
        {
          "indexed": true,
          "internalType": "address",
          "name": "_to",
          "type": "address"
        },
        {
          "indexed": false,
          "internalType": "uint256",
          "name": "_landIdx",
          "type": "uint256"
        }
      ],
      "name": "TransferProperty",
      "type": "event"
    },
    {
      "constant": true,
      "inputs": [],
      "name": "owner",
      "outputs": [
        {
          "internalType": "address",
          "name": "",
          "type": "address"
        }
      ],
      "payable": false,
      "stateMutability": "view",
      "type": "function"
    },
    {
      "constant": true,
      "inputs": [
        {
          "internalType": "address",
          "name": "",
          "type": "address"
        },
        {
          "internalType": "uint256",
          "name": "",
          "type": "uint256"
        }
      ],
      "name": "property",
      "outputs": [
        {
          "internalType": "address",
          "name": "ownerAddress",
          "type": "address"
        },
        {
          "internalType": "string",
          "name": "location",
          "type": "string"
        },
        {
          "internalType": "uint256",
          "name": "ID",
          "type": "uint256"
        },
        {
          "internalType": "uint256",
          "name": "cost",
          "type": "uint256"
        },
        {
          "internalType": "uint256",
          "name": "state",
          "type": "uint256"
        }
      ],
      "payable": false,
      "stateMutability": "view",
      "type": "function"
    },
    {
      "constant": false,
      "inputs": [
        {
          "internalType": "string",
          "name": "location",
          "type": "string"
        },
        {
          "internalType": "uint256",
          "name": "cost",
          "type": "uint256"
        }
      ],
      "name": "_createProperty",
      "outputs": [],
      "payable": true,
      "stateMutability": "payable",
      "type": "function"
    },
    {
      "constant": true,
      "inputs": [
        {
          "internalType": "address",
          "name": "landOwner",
          "type": "address"
        },
        {
          "internalType": "uint256",
          "name": "propertyID",
          "type": "uint256"
        }
      ],
      "name": "_getPropertyDetails",
      "outputs": [
        {
          "internalType": "address",
          "name": "",
          "type": "address"
        },
        {
          "internalType": "string",
          "name": "",
          "type": "string"
        },
        {
          "internalType": "uint256",
          "name": "",
          "type": "uint256"
        },
        {
          "internalType": "uint256",
          "name": "",
          "type": "uint256"
        }
      ],
      "payable": false,
      "stateMutability": "view",
      "type": "function"
    },
    {
      "constant": false,
      "inputs": [
        {
          "internalType": "address payable",
          "name": "_buyer",
          "type": "address"
        },
        {
          "internalType": "uint256",
          "name": "propertyID",
          "type": "uint256"
        }
      ],
      "name": "_transferProperty",
      "outputs": [
        {
          "internalType": "bool",
          "name": "",
          "type": "bool"
        }
      ],
      "payable": true,
      "stateMutability": "payable",
      "type": "function"
    }
  ],
  "bytecode": "0x608060405234801561001057600080fd5b5033600160006101000a81548173ffffffffffffffffffffffffffffffffffffffff021916908373ffffffffffffffffffffffffffffffffffffffff1602179055506000808190555061110c806100686000396000f3fe60806040526004361061004a5760003560e01c80636eb4e00e1461004f5780638da5cb5b1461016b578063a9e9f032146101c2578063b9788372146102d7578063dece20b21461039c575b600080fd5b34801561005b57600080fd5b506100a86004803603604081101561007257600080fd5b81019080803573ffffffffffffffffffffffffffffffffffffffff16906020019092919080359060200190929190505050610402565b604051808673ffffffffffffffffffffffffffffffffffffffff1673ffffffffffffffffffffffffffffffffffffffff16815260200180602001858152602001848152602001838152602001828103825286818151815260200191508051906020019080838360005b8381101561012c578082015181840152602081019050610111565b50505050905090810190601f1680156101595780820380516001836020036101000a031916815260200191505b50965050505050505060405180910390f35b34801561017757600080fd5b5061018061050a565b604051808273ffffffffffffffffffffffffffffffffffffffff1673ffffffffffffffffffffffffffffffffffffffff16815260200191505060405180910390f35b3480156101ce57600080fd5b5061021b600480360360408110156101e557600080fd5b81019080803573ffffffffffffffffffffffffffffffffffffffff16906020019092919080359060200190929190505050610530565b604051808573ffffffffffffffffffffffffffffffffffffffff1673ffffffffffffffffffffffffffffffffffffffff16815260200180602001848152602001838152602001828103825285818151815260200191508051906020019080838360005b8381101561029957808201518184015260208101905061027e565b50505050905090810190601f1680156102c65780820380516001836020036101000a031916815260200191505b509550505050505060405180910390f35b61039a600480360360408110156102ed57600080fd5b810190808035906020019064010000000081111561030a57600080fd5b82018360208201111561031c57600080fd5b8035906020019184600183028401116401000000008311171561033e57600080fd5b91908080601f016020809104026020016040519081016040528093929190818152602001838380828437600081840152601f19601f82011690508083019250505050505050919291929080359060200190929190505050610773565b005b6103e8600480360360408110156103b257600080fd5b81019080803573ffffffffffffffffffffffffffffffffffffffff1690602001909291908035906020019092919050505061099a565b604051808215151515815260200191505060405180910390f35b6002602052816000526040600020818154811061041b57fe5b9060005260206000209060050201600091509150508060000160009054906101000a900473ffffffffffffffffffffffffffffffffffffffff1690806001018054600181600116156101000203166002900480601f0160208091040260200160405190810160405280929190818152602001828054600181600116156101000203166002900480156104ee5780601f106104c3576101008083540402835291602001916104ee565b820191906000526020600020905b8154815290600101906020018083116104d157829003601f168201915b5050505050908060020154908060030154908060040154905085565b600160009054906101000a900473ffffffffffffffffffffffffffffffffffffffff1681565b60006060600080600260008773ffffffffffffffffffffffffffffffffffffffff1673ffffffffffffffffffffffffffffffffffffffff168152602001908152602001600020858154811061058157fe5b906000526020600020906005020160000160009054906101000a900473ffffffffffffffffffffffffffffffffffffffff16600260008873ffffffffffffffffffffffffffffffffffffffff1673ffffffffffffffffffffffffffffffffffffffff16815260200190815260200160002086815481106105fd57fe5b9060005260206000209060050201600101600260008973ffffffffffffffffffffffffffffffffffffffff1673ffffffffffffffffffffffffffffffffffffffff168152602001908152602001600020878154811061065857fe5b906000526020600020906005020160020154600260008a73ffffffffffffffffffffffffffffffffffffffff1673ffffffffffffffffffffffffffffffffffffffff16815260200190815260200160002088815481106106b457fe5b906000526020600020906005020160030154828054600181600116156101000203166002900480601f01602080910402602001604051908101604052809291908181526020018280546001816001161561010002031660029004801561075b5780601f106107305761010080835404028352916020019161075b565b820191906000526020600020905b81548152906001019060200180831161073e57829003601f168201915b50505050509250935093509350935092959194509250565b600160009054906101000a900473ffffffffffffffffffffffffffffffffffffffff1673ffffffffffffffffffffffffffffffffffffffff163373ffffffffffffffffffffffffffffffffffffffff16146107cd57600080fd5b60008090506107e86001600054610f8990919063ffffffff16565b6000819055506107f6610fa5565b6040518060a001604052803373ffffffffffffffffffffffffffffffffffffffff1681526020018581526020016000548152602001848152602001838152509050600260003373ffffffffffffffffffffffffffffffffffffffff1673ffffffffffffffffffffffffffffffffffffffff168152602001908152602001600020819080600181540180825580915050906001820390600052602060002090600502016000909192909190915060008201518160000160006101000a81548173ffffffffffffffffffffffffffffffffffffffff021916908373ffffffffffffffffffffffffffffffffffffffff1602179055506020820151816001019080519060200190610905929190610fea565b506040820151816002015560608201518160030155608082015181600401555050507f13f11507732a308afb468c393d2bea31747b8d26368e6ceee9796e7d4139839d33600054604051808373ffffffffffffffffffffffffffffffffffffffff1673ffffffffffffffffffffffffffffffffffffffff1681526020018281526020019250505060405180910390a150505050565b6000600260003373ffffffffffffffffffffffffffffffffffffffff1673ffffffffffffffffffffffffffffffffffffffff16815260200190815260200160002082815481106109e657fe5b906000526020600020906005020160030154670de0b6b3a76400008102341015610a0f57600080fd5b600160009054906101000a900473ffffffffffffffffffffffffffffffffffffffff1673ffffffffffffffffffffffffffffffffffffffff163373ffffffffffffffffffffffffffffffffffffffff1614610a6957600080fd5b60006001905060008090505b600260003373ffffffffffffffffffffffffffffffffffffffff1673ffffffffffffffffffffffffffffffffffffffff16815260200190815260200160002080549050811015610f7b5784600260003373ffffffffffffffffffffffffffffffffffffffff1673ffffffffffffffffffffffffffffffffffffffff1681526020019081526020016000208281548110610b0a57fe5b9060005260206000209060050201600201541415610f6e57610b2a610fa5565b6040518060a001604052808873ffffffffffffffffffffffffffffffffffffffff168152602001600260003373ffffffffffffffffffffffffffffffffffffffff1673ffffffffffffffffffffffffffffffffffffffff1681526020019081526020016000208481548110610b9b57fe5b90600052602060002090600502016001018054600181600116156101000203166002900480601f016020809104026020016040519081016040528092919081815260200182805460018160011615610100020316600290048015610c405780601f10610c1557610100808354040283529160200191610c40565b820191906000526020600020905b815481529060010190602001808311610c2357829003601f168201915b50505050508152602001878152602001600260003373ffffffffffffffffffffffffffffffffffffffff1673ffffffffffffffffffffffffffffffffffffffff1681526020019081526020016000208481548110610c9a57fe5b9060005260206000209060050201600301548152602001848152509050600260008873ffffffffffffffffffffffffffffffffffffffff1673ffffffffffffffffffffffffffffffffffffffff168152602001908152602001600020819080600181540180825580915050906001820390600052602060002090600502016000909192909190915060008201518160000160006101000a81548173ffffffffffffffffffffffffffffffffffffffff021916908373ffffffffffffffffffffffffffffffffffffffff1602179055506020820151816001019080519060200190610d85929190610fea565b50604082015181600201556060820151816003015560808201518160040155505050600260003373ffffffffffffffffffffffffffffffffffffffff1673ffffffffffffffffffffffffffffffffffffffff1681526020019081526020016000208281548110610df157fe5b9060005260206000209060050201600080820160006101000a81549073ffffffffffffffffffffffffffffffffffffffff0219169055600182016000610e37919061106a565b60028201600090556003820160009055600482016000905550508673ffffffffffffffffffffffffffffffffffffffff163373ffffffffffffffffffffffffffffffffffffffff167fa5cecab0e396ddf8ae29902ba8e9de0edf0993fe004c8775e5d90b97eb0b5eee886040518082815260200191505060405180910390a38673ffffffffffffffffffffffffffffffffffffffff166108fc670de0b6b3a7640000600260003373ffffffffffffffffffffffffffffffffffffffff1673ffffffffffffffffffffffffffffffffffffffff1681526020019081526020016000208581548110610f2357fe5b906000526020600020906005020160030154029081150290604051600060405180830381858888f19350505050158015610f61573d6000803e3d6000fd5b5060019450505050610f82565b8080600101915050610a75565b5060009250505b5092915050565b600080828401905083811015610f9b57fe5b8091505092915050565b6040518060a00160405280600073ffffffffffffffffffffffffffffffffffffffff168152602001606081526020016000815260200160008152602001600081525090565b828054600181600116156101000203166002900490600052602060002090601f016020900481019282601f1061102b57805160ff1916838001178555611059565b82800160010185558215611059579182015b8281111561105857825182559160200191906001019061103d565b5b50905061106691906110b2565b5090565b50805460018160011615610100020316600290046000825580601f1061109057506110af565b601f0160209004906000526020600020908101906110ae91906110b2565b5b50565b6110d491905b808211156110d05760008160009055506001016110b8565b5090565b9056fea265627a7a723158204861bc10722653ee99de118c356e34cb353dd1051d44ea2bf9f1c9f13ce9febc64736f6c63430005100032",
  "source": "pragma solidity >=0.4.21 <0.7.0;\n\nimport \"./SafeMath.sol\";\n\ncontract RealEstate {\n\n  using SafeMath for uint256;\n\n  struct Property{\n    address ownerAddress;\n    string  location;\n    uint    ID;\n    uint    cost;\n    uint    state;\n  }\n\n  uint idCounter;\n  address public owner;  \n\n  constructor() public{\n    owner = msg.sender;\n    idCounter = 0;\n  }\n\n  mapping (address => Property[]) public property;\n\n  event AddProperty(address _owner, uint _landIdx);\n  event TransferProperty(address indexed _from, address indexed _to, uint _landIdx);\n\n  modifier checkIfAmountEnough(uint cost) {\n    require(msg.value >= (cost)*1e18);\n    _;\n  }\n\n  function _createProperty(string memory location, uint cost) public payable {\n    require(msg.sender == owner);\n    uint state = 0;\n    idCounter = idCounter.add(1);\n      Property memory myProperty = Property(\n          {\n              ownerAddress: msg.sender,\n              location: location,\n              ID: idCounter,\n              cost: cost,\n              state: state\n              \n          });\n      property[msg.sender].push(myProperty);\n      emit AddProperty(msg.sender, idCounter);\n  }\n\n  function _getPropertyDetails(address landOwner, uint propertyID) public view returns (address, string memory, uint, uint){\n    return( \n      property[landOwner][propertyID].ownerAddress,\n      property[landOwner][propertyID].location, \n      property[landOwner][propertyID].ID, \n      property[landOwner][propertyID].cost);\n  }\n\n  function _transferProperty(address payable _buyer, uint propertyID) public payable checkIfAmountEnough(property[msg.sender][propertyID].cost) returns (bool){\n    require(msg.sender == owner);\n    uint state = 1;\n    for(uint i=0; i<(property[msg.sender].length); i++) {\n      if(property[msg.sender][i].ID == propertyID) {\n        Property memory myProperty = Property({\n          ownerAddress: _buyer,\n          location: property[msg.sender][i].location,\n          cost: property[msg.sender][i].cost,\n          ID: propertyID,\n          state: state\n        });\n        property[_buyer].push(myProperty);   \n        \n        //remove land from current ownerAddress\n        delete property[msg.sender][i];\n\n        emit TransferProperty(msg.sender, _buyer, propertyID);                \n        _buyer.transfer((property[msg.sender][i].cost)*1e18);\n        return true;\n      }\n    }\n    return false;\n  }\n}\n",
  "sourcePath": "/Users/bryanphang/Desktop/Personal_info/Bryan/Tutorials/49.Real_estate/contracts/RealEstate.sol",
  "compiler": {
    "name": "solc",
    "version": "0.5.16+commit.9c3226ce.Emscripten.clang"
  },
  "schemaVersion": "3.1.0",
  "updatedAt": "2020-04-25T17:25:43.414Z",
  "devdoc": {
    "methods": {}
  },
  "userdoc": {
    "methods": {}
  }
}