{
  "contractName": "RealEstate",
  "abi": [
    {
      "inputs": [],
      "payable": false,
      "stateMutability": "nonpayable",
      "type": "constructor"
    },
    {
      "anonymous": false,
      "inputs": [
        {
          "indexed": false,
          "internalType": "address",
          "name": "_owner",
          "type": "address"
        },
        {
          "indexed": false,
          "internalType": "uint256",
          "name": "_AssetID",
          "type": "uint256"
        }
      ],
      "name": "AddAsset",
      "type": "event"
    },
    {
      "anonymous": false,
      "inputs": [
        {
          "indexed": true,
          "internalType": "address",
          "name": "previousOwner",
          "type": "address"
        }
      ],
      "name": "OwnershipRenounced",
      "type": "event"
    },
    {
      "anonymous": false,
      "inputs": [
        {
          "indexed": true,
          "internalType": "address",
          "name": "previousOwner",
          "type": "address"
        },
        {
          "indexed": true,
          "internalType": "address",
          "name": "newOwner",
          "type": "address"
        }
      ],
      "name": "OwnershipTransferred",
      "type": "event"
    },
    {
      "anonymous": false,
      "inputs": [
        {
          "indexed": true,
          "internalType": "address",
          "name": "_from",
          "type": "address"
        },
        {
          "indexed": true,
          "internalType": "address",
          "name": "_to",
          "type": "address"
        },
        {
          "indexed": false,
          "internalType": "uint256",
          "name": "_AssetID",
          "type": "uint256"
        }
      ],
      "name": "TransferAsset",
      "type": "event"
    },
    {
      "constant": true,
      "inputs": [],
      "name": "owner",
      "outputs": [
        {
          "internalType": "address",
          "name": "",
          "type": "address"
        }
      ],
      "payable": false,
      "stateMutability": "view",
      "type": "function"
    },
    {
      "constant": true,
      "inputs": [
        {
          "internalType": "address",
          "name": "",
          "type": "address"
        },
        {
          "internalType": "uint256",
          "name": "",
          "type": "uint256"
        }
      ],
      "name": "property",
      "outputs": [
        {
          "internalType": "address",
          "name": "ownerAddress",
          "type": "address"
        },
        {
          "internalType": "address",
          "name": "prevAddress",
          "type": "address"
        },
        {
          "internalType": "string",
          "name": "location",
          "type": "string"
        },
        {
          "internalType": "uint256",
          "name": "ID",
          "type": "uint256"
        },
        {
          "internalType": "uint256",
          "name": "cost",
          "type": "uint256"
        },
        {
          "internalType": "uint256",
          "name": "state",
          "type": "uint256"
        }
      ],
      "payable": false,
      "stateMutability": "view",
      "type": "function"
    },
    {
      "constant": false,
      "inputs": [],
      "name": "renounceOwnership",
      "outputs": [],
      "payable": false,
      "stateMutability": "nonpayable",
      "type": "function"
    },
    {
      "constant": false,
      "inputs": [
        {
          "internalType": "address",
          "name": "newOwner",
          "type": "address"
        }
      ],
      "name": "transferOwnership",
      "outputs": [],
      "payable": false,
      "stateMutability": "nonpayable",
      "type": "function"
    },
    {
      "constant": true,
      "inputs": [],
      "name": "getBalance",
      "outputs": [
        {
          "internalType": "uint256",
          "name": "",
          "type": "uint256"
        }
      ],
      "payable": false,
      "stateMutability": "view",
      "type": "function"
    },
    {
      "constant": false,
      "inputs": [
        {
          "internalType": "string",
          "name": "location",
          "type": "string"
        },
        {
          "internalType": "uint256",
          "name": "cost",
          "type": "uint256"
        }
      ],
      "name": "_createProperty",
      "outputs": [],
      "payable": true,
      "stateMutability": "payable",
      "type": "function"
    },
    {
      "constant": true,
      "inputs": [
        {
          "internalType": "address",
          "name": "_owner",
          "type": "address"
        }
      ],
      "name": "_numOfPropertyOwnerHas",
      "outputs": [
        {
          "internalType": "uint256",
          "name": "",
          "type": "uint256"
        }
      ],
      "payable": false,
      "stateMutability": "view",
      "type": "function"
    },
    {
      "constant": true,
      "inputs": [
        {
          "internalType": "address",
          "name": "assetOwner",
          "type": "address"
        },
        {
          "internalType": "uint256",
          "name": "propertyID",
          "type": "uint256"
        }
      ],
      "name": "_getPropertyDetail",
      "outputs": [
        {
          "internalType": "address",
          "name": "",
          "type": "address"
        },
        {
          "internalType": "address",
          "name": "",
          "type": "address"
        },
        {
          "internalType": "string",
          "name": "",
          "type": "string"
        },
        {
          "internalType": "uint256",
          "name": "",
          "type": "uint256"
        },
        {
          "internalType": "uint256",
          "name": "",
          "type": "uint256"
        },
        {
          "internalType": "uint256",
          "name": "",
          "type": "uint256"
        }
      ],
      "payable": false,
      "stateMutability": "view",
      "type": "function"
    },
    {
      "constant": false,
      "inputs": [
        {
          "internalType": "address payable",
          "name": "_buyer",
          "type": "address"
        },
        {
          "internalType": "uint256",
          "name": "assetIdx",
          "type": "uint256"
        }
      ],
      "name": "_transferProperty",
      "outputs": [
        {
          "internalType": "uint256",
          "name": "balance",
          "type": "uint256"
        }
      ],
      "payable": true,
      "stateMutability": "payable",
      "type": "function"
    },
    {
      "constant": false,
      "inputs": [
        {
          "internalType": "address payable",
          "name": "_seller",
          "type": "address"
        },
        {
          "internalType": "uint256",
          "name": "assetIdx",
          "type": "uint256"
        }
      ],
      "name": "_buyAProperty",
      "outputs": [
        {
          "internalType": "uint256",
          "name": "balance",
          "type": "uint256"
        }
      ],
      "payable": true,
      "stateMutability": "payable",
      "type": "function"
    }
  ],
  "bytecode": "0x608060405234801561001057600080fd5b50336000806101000a81548173ffffffffffffffffffffffffffffffffffffffff021916908373ffffffffffffffffffffffffffffffffffffffff16021790555033600360006101000a81548173ffffffffffffffffffffffffffffffffffffffff021916908373ffffffffffffffffffffffffffffffffffffffff1602179055506000600181905550612163806100a96000396000f3fe6080604052600436106100915760003560e01c8063715018a611610059578063715018a6146104265780638da5cb5b1461043d578063b978837214610494578063dece20b214610559578063f2fde38b146105bb57610091565b8063010cdfa514610096578063097f4538146101e557806312065fe01461024a57806354f94429146102755780636eb4e00e146102d7575b600080fd5b3480156100a257600080fd5b506100ef600480360360408110156100b957600080fd5b81019080803573ffffffffffffffffffffffffffffffffffffffff1690602001909291908035906020019092919050505061060c565b604051808773ffffffffffffffffffffffffffffffffffffffff1673ffffffffffffffffffffffffffffffffffffffff1681526020018673ffffffffffffffffffffffffffffffffffffffff1673ffffffffffffffffffffffffffffffffffffffff16815260200180602001858152602001848152602001838152602001828103825286818151815260200191508051906020019080838360005b838110156101a557808201518184015260208101905061018a565b50505050905090810190601f1680156101d25780820380516001836020036101000a031916815260200191505b5097505050505050505060405180910390f35b3480156101f157600080fd5b506102346004803603602081101561020857600080fd5b81019080803573ffffffffffffffffffffffffffffffffffffffff16906020019092919050505061092f565b6040518082815260200191505060405180910390f35b34801561025657600080fd5b5061025f61097b565b6040518082815260200191505060405180910390f35b6102c16004803603604081101561028b57600080fd5b81019080803573ffffffffffffffffffffffffffffffffffffffff169060200190929190803590602001909291905050506109c2565b6040518082815260200191505060405180910390f35b3480156102e357600080fd5b50610330600480360360408110156102fa57600080fd5b81019080803573ffffffffffffffffffffffffffffffffffffffff16906020019092919080359060200190929190505050611187565b604051808773ffffffffffffffffffffffffffffffffffffffff1673ffffffffffffffffffffffffffffffffffffffff1681526020018673ffffffffffffffffffffffffffffffffffffffff1673ffffffffffffffffffffffffffffffffffffffff16815260200180602001858152602001848152602001838152602001828103825286818151815260200191508051906020019080838360005b838110156103e65780820151818401526020810190506103cb565b50505050905090810190601f1680156104135780820380516001836020036101000a031916815260200191505b5097505050505050505060405180910390f35b34801561043257600080fd5b5061043b6112b5565b005b34801561044957600080fd5b506104526113b5565b604051808273ffffffffffffffffffffffffffffffffffffffff1673ffffffffffffffffffffffffffffffffffffffff16815260200191505060405180910390f35b610557600480360360408110156104aa57600080fd5b81019080803590602001906401000000008111156104c757600080fd5b8201836020820111156104d957600080fd5b803590602001918460018302840111640100000000831117156104fb57600080fd5b91908080601f016020809104026020016040519081016040528093929190818152602001838380828437600081840152601f19601f820116905080830192505050505050509192919290803590602001909291905050506113db565b005b6105a56004803603604081101561056f57600080fd5b81019080803573ffffffffffffffffffffffffffffffffffffffff169060200190929190803590602001909291905050506116b7565b6040518082815260200191505060405180910390f35b3480156105c757600080fd5b5061060a600480360360208110156105de57600080fd5b81019080803573ffffffffffffffffffffffffffffffffffffffff169060200190929190505050611e72565b005b60008060606000806000600460008973ffffffffffffffffffffffffffffffffffffffff1673ffffffffffffffffffffffffffffffffffffffff168152602001908152602001600020878154811061066057fe5b906000526020600020906006020160000160009054906101000a900473ffffffffffffffffffffffffffffffffffffffff16600460008a73ffffffffffffffffffffffffffffffffffffffff1673ffffffffffffffffffffffffffffffffffffffff16815260200190815260200160002088815481106106dc57fe5b906000526020600020906006020160010160009054906101000a900473ffffffffffffffffffffffffffffffffffffffff16600460008b73ffffffffffffffffffffffffffffffffffffffff1673ffffffffffffffffffffffffffffffffffffffff168152602001908152602001600020898154811061075857fe5b9060005260206000209060060201600201600460008c73ffffffffffffffffffffffffffffffffffffffff1673ffffffffffffffffffffffffffffffffffffffff1681526020019081526020016000208a815481106107b357fe5b906000526020600020906006020160030154600460008d73ffffffffffffffffffffffffffffffffffffffff1673ffffffffffffffffffffffffffffffffffffffff1681526020019081526020016000208b8154811061080f57fe5b906000526020600020906006020160040154600460008e73ffffffffffffffffffffffffffffffffffffffff1673ffffffffffffffffffffffffffffffffffffffff1681526020019081526020016000208c8154811061086b57fe5b906000526020600020906006020160050154838054600181600116156101000203166002900480601f0160208091040260200160405190810160405280929190818152602001828054600181600116156101000203166002900480156109125780601f106108e757610100808354040283529160200191610912565b820191906000526020600020905b8154815290600101906020018083116108f557829003601f168201915b505050505093509550955095509550955095509295509295509295565b6000600460008373ffffffffffffffffffffffffffffffffffffffff1673ffffffffffffffffffffffffffffffffffffffff168152602001908152602001600020805490509050919050565b6000600660003373ffffffffffffffffffffffffffffffffffffffff1673ffffffffffffffffffffffffffffffffffffffff16815260200190815260200160002054905090565b600080600090505b600460008573ffffffffffffffffffffffffffffffffffffffff1673ffffffffffffffffffffffffffffffffffffffff1681526020019081526020016000208054905081101561117f5782600460008673ffffffffffffffffffffffffffffffffffffffff1673ffffffffffffffffffffffffffffffffffffffff1681526020019081526020016000208281548110610a5f57fe5b906000526020600020906006020160030154141561117257670de0b6b3a7640000600460008673ffffffffffffffffffffffffffffffffffffffff1673ffffffffffffffffffffffffffffffffffffffff1681526020019081526020016000208281548110610aca57fe5b90600052602060002090600602016004015402341015610ae957600080fd5b610af1611fdf565b6040518060c001604052803373ffffffffffffffffffffffffffffffffffffffff1681526020018673ffffffffffffffffffffffffffffffffffffffff168152602001600460008873ffffffffffffffffffffffffffffffffffffffff1673ffffffffffffffffffffffffffffffffffffffff1681526020019081526020016000208481548110610b7e57fe5b90600052602060002090600602016002018054600181600116156101000203166002900480601f016020809104026020016040519081016040528092919081815260200182805460018160011615610100020316600290048015610c235780601f10610bf857610100808354040283529160200191610c23565b820191906000526020600020905b815481529060010190602001808311610c0657829003601f168201915b50505050508152602001600460008873ffffffffffffffffffffffffffffffffffffffff1673ffffffffffffffffffffffffffffffffffffffff1681526020019081526020016000208481548110610c7757fe5b9060005260206000209060060201600301548152602001600460008873ffffffffffffffffffffffffffffffffffffffff1673ffffffffffffffffffffffffffffffffffffffff1681526020019081526020016000208481548110610cd857fe5b9060005260206000209060060201600401548152602001600460008873ffffffffffffffffffffffffffffffffffffffff1673ffffffffffffffffffffffffffffffffffffffff1681526020019081526020016000208481548110610d3957fe5b90600052602060002090600602016005016000815480929190600101919050558152509050600460003373ffffffffffffffffffffffffffffffffffffffff1673ffffffffffffffffffffffffffffffffffffffff168152602001908152602001600020819080600181540180825580915050906001820390600052602060002090600602016000909192909190915060008201518160000160006101000a81548173ffffffffffffffffffffffffffffffffffffffff021916908373ffffffffffffffffffffffffffffffffffffffff16021790555060208201518160010160006101000a81548173ffffffffffffffffffffffffffffffffffffffff021916908373ffffffffffffffffffffffffffffffffffffffff1602179055506040820151816002019080519060200190610e73929190612041565b50606082015181600301556080820151816004015560a08201518160050155505050600460008673ffffffffffffffffffffffffffffffffffffffff1673ffffffffffffffffffffffffffffffffffffffff1681526020019081526020016000208281548110610edf57fe5b9060005260206000209060060201600080820160006101000a81549073ffffffffffffffffffffffffffffffffffffffff02191690556001820160006101000a81549073ffffffffffffffffffffffffffffffffffffffff0219169055600282016000610f4c91906120c1565b6003820160009055600482016000905560058201600090555050670de0b6b3a7640000600460008773ffffffffffffffffffffffffffffffffffffffff1673ffffffffffffffffffffffffffffffffffffffff1681526020019081526020016000208381548110610fb957fe5b90600052602060002090600602016004015402600660008773ffffffffffffffffffffffffffffffffffffffff1673ffffffffffffffffffffffffffffffffffffffff168152602001908152602001600020600082825403925050819055503373ffffffffffffffffffffffffffffffffffffffff166108fc670de0b6b3a7640000600460008973ffffffffffffffffffffffffffffffffffffffff1673ffffffffffffffffffffffffffffffffffffffff168152602001908152602001600020858154811061108557fe5b906000526020600020906006020160040154029081150290604051600060405180830381858888f193505050501580156110c3573d6000803e3d6000fd5b503373ffffffffffffffffffffffffffffffffffffffff168573ffffffffffffffffffffffffffffffffffffffff167f428ab6cd67836d0fe93626e98108a1a2593b0bc06a1a87b59e437a17cbaf430c866040518082815260200191505060405180910390a3600660003373ffffffffffffffffffffffffffffffffffffffff1673ffffffffffffffffffffffffffffffffffffffff1681526020019081526020016000205492505050611181565b80806001019150506109ca565b505b92915050565b600460205281600052604060002081815481106111a057fe5b9060005260206000209060060201600091509150508060000160009054906101000a900473ffffffffffffffffffffffffffffffffffffffff16908060010160009054906101000a900473ffffffffffffffffffffffffffffffffffffffff1690806002018054600181600116156101000203166002900480601f0160208091040260200160405190810160405280929190818152602001828054600181600116156101000203166002900480156112995780601f1061126e57610100808354040283529160200191611299565b820191906000526020600020905b81548152906001019060200180831161127c57829003601f168201915b5050505050908060030154908060040154908060050154905086565b6000809054906101000a900473ffffffffffffffffffffffffffffffffffffffff1673ffffffffffffffffffffffffffffffffffffffff163373ffffffffffffffffffffffffffffffffffffffff161461130e57600080fd5b6000809054906101000a900473ffffffffffffffffffffffffffffffffffffffff1673ffffffffffffffffffffffffffffffffffffffff167ff8df31144d9c2f0f6b59d69b8b98abd5459d07f2742c4df920b25aae33c6482060405160405180910390a260008060006101000a81548173ffffffffffffffffffffffffffffffffffffffff021916908373ffffffffffffffffffffffffffffffffffffffff160217905550565b600360009054906101000a900473ffffffffffffffffffffffffffffffffffffffff1681565b6000809054906101000a900473ffffffffffffffffffffffffffffffffffffffff1673ffffffffffffffffffffffffffffffffffffffff163373ffffffffffffffffffffffffffffffffffffffff161461143457600080fd5b600060019050600560003373ffffffffffffffffffffffffffffffffffffffff1673ffffffffffffffffffffffffffffffffffffffff16815260200190815260200160002060008154809291906001019190505550611491611fdf565b6040518060c001604052803373ffffffffffffffffffffffffffffffffffffffff168152602001600073ffffffffffffffffffffffffffffffffffffffff168152602001858152602001600154815260200184815260200183815250905061150460018054611fc390919063ffffffff16565b6001819055506001600460003373ffffffffffffffffffffffffffffffffffffffff1673ffffffffffffffffffffffffffffffffffffffff168152602001908152602001600020829080600181540180825580915050906001820390600052602060002090600602016000909192909190915060008201518160000160006101000a81548173ffffffffffffffffffffffffffffffffffffffff021916908373ffffffffffffffffffffffffffffffffffffffff16021790555060208201518160010160006101000a81548173ffffffffffffffffffffffffffffffffffffffff021916908373ffffffffffffffffffffffffffffffffffffffff1602179055506040820151816002019080519060200190611621929190612041565b50606082015181600301556080820151816004015560a08201518160050155505050507f60abe041d1b76452cbc2c27bcfff40ca2f40a0440f2663684bcd3b69c44fe76c33600154604051808373ffffffffffffffffffffffffffffffffffffffff1673ffffffffffffffffffffffffffffffffffffffff1681526020018281526020019250505060405180910390a150505050565b600080600090505b600460003373ffffffffffffffffffffffffffffffffffffffff1673ffffffffffffffffffffffffffffffffffffffff16815260200190815260200160002080549050811015611e6a5782600460003373ffffffffffffffffffffffffffffffffffffffff1673ffffffffffffffffffffffffffffffffffffffff168152602001908152602001600020828154811061175457fe5b9060005260206000209060060201600301541415611e5d57670de0b6b3a7640000600460003373ffffffffffffffffffffffffffffffffffffffff1673ffffffffffffffffffffffffffffffffffffffff16815260200190815260200160002082815481106117bf57fe5b906000526020600020906006020160040154023410156117de57600080fd5b6117e6611fdf565b6040518060c001604052808673ffffffffffffffffffffffffffffffffffffffff1681526020013373ffffffffffffffffffffffffffffffffffffffff168152602001600460003373ffffffffffffffffffffffffffffffffffffffff1673ffffffffffffffffffffffffffffffffffffffff168152602001908152602001600020848154811061187357fe5b90600052602060002090600602016002018054600181600116156101000203166002900480601f0160208091040260200160405190810160405280929190818152602001828054600181600116156101000203166002900480156119185780601f106118ed57610100808354040283529160200191611918565b820191906000526020600020905b8154815290600101906020018083116118fb57829003601f168201915b50505050508152602001600460003373ffffffffffffffffffffffffffffffffffffffff1673ffffffffffffffffffffffffffffffffffffffff168152602001908152602001600020848154811061196c57fe5b9060005260206000209060060201600301548152602001600460003373ffffffffffffffffffffffffffffffffffffffff1673ffffffffffffffffffffffffffffffffffffffff16815260200190815260200160002084815481106119cd57fe5b9060005260206000209060060201600401548152602001600460003373ffffffffffffffffffffffffffffffffffffffff1673ffffffffffffffffffffffffffffffffffffffff1681526020019081526020016000208481548110611a2e57fe5b90600052602060002090600602016005016000815480929190600101919050558152509050600460008673ffffffffffffffffffffffffffffffffffffffff1673ffffffffffffffffffffffffffffffffffffffff168152602001908152602001600020819080600181540180825580915050906001820390600052602060002090600602016000909192909190915060008201518160000160006101000a81548173ffffffffffffffffffffffffffffffffffffffff021916908373ffffffffffffffffffffffffffffffffffffffff16021790555060208201518160010160006101000a81548173ffffffffffffffffffffffffffffffffffffffff021916908373ffffffffffffffffffffffffffffffffffffffff1602179055506040820151816002019080519060200190611b68929190612041565b50606082015181600301556080820151816004015560a08201518160050155505050600460003373ffffffffffffffffffffffffffffffffffffffff1673ffffffffffffffffffffffffffffffffffffffff1681526020019081526020016000208281548110611bd457fe5b9060005260206000209060060201600080820160006101000a81549073ffffffffffffffffffffffffffffffffffffffff02191690556001820160006101000a81549073ffffffffffffffffffffffffffffffffffffffff0219169055600282016000611c4191906120c1565b6003820160009055600482016000905560058201600090555050600460003373ffffffffffffffffffffffffffffffffffffffff1673ffffffffffffffffffffffffffffffffffffffff1681526020019081526020016000208281548110611ca557fe5b906000526020600020906006020160040154600660003373ffffffffffffffffffffffffffffffffffffffff1673ffffffffffffffffffffffffffffffffffffffff168152602001908152602001600020600082825403925050819055508473ffffffffffffffffffffffffffffffffffffffff166108fc670de0b6b3a7640000600460003373ffffffffffffffffffffffffffffffffffffffff1673ffffffffffffffffffffffffffffffffffffffff1681526020019081526020016000208581548110611d7057fe5b906000526020600020906006020160040154029081150290604051600060405180830381858888f19350505050158015611dae573d6000803e3d6000fd5b508473ffffffffffffffffffffffffffffffffffffffff163373ffffffffffffffffffffffffffffffffffffffff167f428ab6cd67836d0fe93626e98108a1a2593b0bc06a1a87b59e437a17cbaf430c866040518082815260200191505060405180910390a3600660003373ffffffffffffffffffffffffffffffffffffffff1673ffffffffffffffffffffffffffffffffffffffff1681526020019081526020016000205492505050611e6c565b80806001019150506116bf565b505b92915050565b6000809054906101000a900473ffffffffffffffffffffffffffffffffffffffff1673ffffffffffffffffffffffffffffffffffffffff163373ffffffffffffffffffffffffffffffffffffffff1614611ecb57600080fd5b600073ffffffffffffffffffffffffffffffffffffffff168173ffffffffffffffffffffffffffffffffffffffff161415611f0557600080fd5b8073ffffffffffffffffffffffffffffffffffffffff166000809054906101000a900473ffffffffffffffffffffffffffffffffffffffff1673ffffffffffffffffffffffffffffffffffffffff167f8be0079c531659141344cd1fd0a4f28419497f9722a3daafe3b4186f6b6457e060405160405180910390a3806000806101000a81548173ffffffffffffffffffffffffffffffffffffffff021916908373ffffffffffffffffffffffffffffffffffffffff16021790555050565b600080828401905083811015611fd557fe5b8091505092915050565b6040518060c00160405280600073ffffffffffffffffffffffffffffffffffffffff168152602001600073ffffffffffffffffffffffffffffffffffffffff168152602001606081526020016000815260200160008152602001600081525090565b828054600181600116156101000203166002900490600052602060002090601f016020900481019282601f1061208257805160ff19168380011785556120b0565b828001600101855582156120b0579182015b828111156120af578251825591602001919060010190612094565b5b5090506120bd9190612109565b5090565b50805460018160011615610100020316600290046000825580601f106120e75750612106565b601f0160209004906000526020600020908101906121059190612109565b5b50565b61212b91905b8082111561212757600081600090555060010161210f565b5090565b9056fea265627a7a72315820e9a418dc512ea8b75d31925f49b933f9b75066dd8a43bc2a751f963255b8a24064736f6c63430005100032",
  "source": "pragma solidity >=0.4.21 <0.7.0;\n\nimport \"./SafeMath.sol\";\nimport \"./Ownable.sol\";\n\ncontract RealEstate is Ownable {\n\n    using SafeMath for uint256;\n\n    struct Asset {\n        address ownerAddress;\n        address prevAddress;\n        string  location;\n        uint    ID;\n        uint    cost;\n        uint    state;\n    }\n\n    uint idCounter;\n    address prevAdd;\n    address public owner;  \n\n    constructor() public{\n        owner = msg.sender;\n        idCounter = 0;\n    }\n  \n    event AddAsset(address _owner, uint _AssetID);\n    event TransferAsset(address indexed _from, address indexed _to, uint _AssetID);\n\n    mapping (address => Asset[]) public property;\n    mapping (address => uint) ownerPropertyCount;\n\n    mapping (address => uint) private balances;\n\n    function getBalance() public view returns (uint) {\n        /* Get the balance of the sender of this transaction */\n        return balances[msg.sender];\n    }\n  \n    function _createProperty(string memory location, uint cost) public payable onlyOwner {\n        uint state = 1;\n        ownerPropertyCount[msg.sender]++;\n        \n        Asset memory myAsset = Asset({\n            ownerAddress: msg.sender,\n            prevAddress: address(0),\n            location: location,\n            ID: idCounter,\n            cost: cost,\n            state: state\n        });\n        idCounter = idCounter.add(1);\n        property[msg.sender].push(myAsset)-1;\n        emit AddAsset(msg.sender, idCounter);\n    }\n\n    function _numOfPropertyOwnerHas(address _owner) public view returns (uint){\n        return (property[_owner].length);\n    }\n  \n    //gets the details of the property\n    function _getPropertyDetail(address assetOwner, uint propertyID) public view returns (address, address, string memory, uint, uint, uint){\n        return(property[assetOwner][propertyID].ownerAddress,\n        property[assetOwner][propertyID].prevAddress,\n        property[assetOwner][propertyID].location, \n        property[assetOwner][propertyID].ID, \n        property[assetOwner][propertyID].cost,\n        property[assetOwner][propertyID].state);\n    }\n\n    function _transferProperty(address payable _buyer, uint assetIdx) public payable returns (uint balance){\n        uint i;\n        for(i=0; i<(property[msg.sender].length); i++){\n            if(property[msg.sender][i].ID == assetIdx){\n                require(msg.value >= property[msg.sender][i].cost*1e18);\n                Asset memory myAsset = Asset({\n                    ownerAddress: _buyer,\n                    prevAddress: msg.sender,\n                    location: property[msg.sender][i].location,\n                    ID: property[msg.sender][i].ID,\n                    cost: property[msg.sender][i].cost,\n                    state: property[msg.sender][i].state++\n                });\n            property[_buyer].push(myAsset);\n            delete property[msg.sender][i];\n            balances[msg.sender] -= property[msg.sender][i].cost;\n            _buyer.transfer(property[msg.sender][i].cost*1e18);\n            emit TransferAsset(msg.sender, _buyer, assetIdx);\n            \n            return balances[msg.sender];\n            }\n        }\n    }\n\n    function _buyAProperty(address payable _seller, uint assetIdx) public payable returns (uint balance){\n        uint i;\n        for(i=0; i<(property[_seller].length); i++){\n            if(property[_seller][i].ID == assetIdx){    \n                require(msg.value >= property[_seller][i].cost*1e18);\n                Asset memory myAsset = Asset({\n                    ownerAddress: msg.sender,\n                    prevAddress: _seller,\n                    location: property[_seller][i].location,\n                    ID: property[_seller][i].ID,\n                    cost: property[_seller][i].cost,\n                    state: property[_seller][i].state++\n                });\n            property[msg.sender].push(myAsset);\n            delete property[_seller][i];\n            balances[_seller] -= property[_seller][i].cost*1e18;\n            msg.sender.transfer(property[_seller][i].cost*1e18);\n            emit TransferAsset(_seller, msg.sender, assetIdx);\n            \n            return balances[msg.sender];\n            }\n        \n        }\n    }\n\n// function _currentPropertyOwned(uint propertyID) public view returns (address){\n//     //for loop to search for all the owner property id match\n//     uint i;\n//     for(i = 0; i<property[msg.sender].length; i++ ){\n//         if(property[msg.sender][i].ID == propertyID){\n//             return(property[msg.sender][i].ownerAddress);\n//         }\n//     }\n// }\n\n//   function _numOfPropertyOwnerHas(address _owner) public view returns (uint){\n//       uint count = 0;\n//       for(uint i=0; i<property[msg.sender].length; i++) {\n//           if(property[msg.sender][i].ownerAddress == _owner) {\n//              count++;\n//           }\n//       }\n//       return(count);\n//   }\n\n// function _getAllPropertiesInOwnerArray(address _owner) public view returns (uint){\n//     uint i;\n//     uint j;\n//     for(i=0; i<property[_owner].length; i++){\n//         for(j=0; i<property[_owner][i].length; j++){\n//             return(property[_owner][i][j].location);\n//         }\n//     }\n// }\n\n}",
  "sourcePath": "/Users/bryanphang/Desktop/Personal_info/Bryan/Tutorials/49.Real_estate/contracts/RealEstate.sol",
  "compiler": {
    "name": "solc",
    "version": "0.5.16+commit.9c3226ce.Emscripten.clang"
  },
  "schemaVersion": "3.1.0",
  "updatedAt": "2020-04-27T17:45:26.243Z",
  "devdoc": {
    "methods": {}
  },
  "userdoc": {
    "methods": {}
  }
}